:020000040800F2
:10000000300700209D010008DB2F0008DD2F0008CD
:1000100000000000000000000000000000000000E0
:10002000000000000000000000000000DF2F0008BA
:100030000000000000000000E12F0008E32F00088E
:10004000CD010008CD010008CD010008CD01000858
:10005000CD010008CD010008CD010008F3250008FE
:10006000CD010008CD010008CD010008CD01000838
:10007000CD010008CD010008CD010008CD01000828
:10008000F1220008CD01000800000000CD010008A9
:10009000CD010008CD010008CD010008CD01000808
:1000A000CD010008CD010008CD010008032500089E
:1000B000CD01000800000000CD0100080000000094
:1000C00000F002F800F03EF80CA030C80838241800
:1000D0002D18A246671EAB4654465D46AC4201D180
:1000E00000F030F87E460F3E0FCCB6460126334274
:1000F00000D0FB1AA246AB463343184770350000C8
:1001000090350000103A02D378C878C1FAD8520767
:1001100001D330C830C101D504680C6070470000BD
:100120000023002400250026103A01D378C1FBD813
:10013000520700D330C100D50B6070471FB51FBDFB
:1001400010B510BD03F05FF81146FFF7F7FF02F09E
:100150003DFF03F077F803B4FFF7F2FF03BC03F0B1
:100160007DF8000070B505460C46164602E00FCC3F
:100170000FC5103E102EFAD2082E02D303CC03C5B1
:10018000083E042E07D301CC01C5361F03E02178B9
:100190002970641C6D1C761EF9D270BD0F4880F367
:1001A00008880F480168090E0E4A914205D10E4891
:1001B0000E4901600E480F4901600F4880470F4803
:1001C0000047FEE7FEE7FEE7FEE7FEE7FEE700008A
:1001D0000B480C490C4A0D4B7047000030070020BB
:1001E000040000001F000000181002400100000081
:1001F0000000014000000000911F0008C10000083D
:1002000030010020300700203003002030030020A0
:10021000F0B501686A4A1140016000210160416047
:100220008160C1606749674A08390F2390422DD029
:10023000644AF024143290422FD0624A1D022832C0
:10024000904231D05F4E1A033C36B04203D1486829
:1002500015E04860F0BD5B4F0F2650373604B842BA
:100260002DD0584F6437B84202D14868320106E0B9
:10027000544F7837B84204D148680F221206104311
:10028000E7E75149504F0839B84202D1486818434E
:10029000DFE74D4B1433984202D148682043D8E73A
:1002A000494B2833984202D148682843D1E7464B4E
:1002B0003C339842CBD0444A50329042CAD148682D
:1002C0003043C6E730B50368404A0C6A13408A6879
:1002D0004D6922430C692C4322438C692243CC692B
:1002E00022434C6A22438C6A22431A430260CA6842
:1002F00042600A6882604968C16030BD00210160C7
:1003000041608160C160016141618161C1610162DF
:100310004162816270470029016802D001221143C5
:1003200001E0274A11400160704710B58030826AB1
:100330000B0F9C000F23A3409A438262826A09013B
:1003400009090A43826210BD41607047406880B26B
:100350007047002A026801D00A4300E08A43026025
:10036000704702460020D10002D51749083901E044
:10037000144908390968114200D001207047C100B2
:1003800002D51149083901E00E4908394860704723
:1003900002460020D10002D50B49083901E0094985
:1003A00008390968114200D001207047C10002D508
:1003B0000549083901E003490839486070470000E1
:1003C000FEFF000008000240080402400F80FFFF0B
:1003D000FE4A116849084900014311607047FB4912
:1003E00010220028086801D0104300E09043086004
:1003F0007047F64900200968890600D5012070473A
:10040000F2480169090603D5F1494160F1494160AB
:100410007047EE4801698022114301617047EB4942
:100420000420CA68D20701D001207047CA68D206EA
:1004300001D502207047C9684907FBD503207047E2
:1004400000B50346FFF7EBFF02E0FFF7E8FF5B1E96
:10045000012803D0002B00D1052000BD002BF4D1D2
:10046000FAE7F0B50B2706463F043846FFF7E8FFEA
:1004700004280FD1D54C20690225284320616661EC
:1004800020694021084320613846FFF7D9FF2169E0
:10049000A9432161F0BD70B50B252D042846FFF757
:1004A000CFFF04280ED1C94C2069042630432061B7
:1004B00020694021084320612846FFF7C1FF2169D8
:1004C000B143216170BDF8B5064600200B273F04FB
:1004D00000900D463846FFF7B3FF042815D1BB4CFA
:1004E000206901210843206135803846FFF7A8FFC5
:1004F000042806D1B61C290C009631803846FFF737
:100500009FFF2169490849002161F8BDF0B50B271B
:1005100006463F040D463846FFF792FF04280CD1EB
:10052000AA4C206901210843206135803846FFF735
:1005300087FF2169490849002161F0BDA34801698D
:10054000890503D4A2498160A249816070479F4810
:10055000016942159143016170479C48016901227C
:10056000520311430161704798490020C969490746
:10057000890F00D001207047F0B5AA24FFF7F4FFDF
:10058000002800D000240B273F043846FFF758FF0F
:10059000042813D18D4D286920263043286128690D
:1005A0004021084328613846FFF74AFF10210428FC
:1005B00005D0052802D02A698A432A61F0BD28693E
:1005C000B043286128690E46304328618248048080
:1005D0003846FFF735FF0528F0D02969B143296176
:1005E000F0BDF0B5C04301040E0E0102C7B2040E07
:1005F0000B200D0E0004FFF723FF042831D17349AF
:100600000A6910231A430A61FF2F07D07248078135
:100610000B200004FFF714FF04281BD1FF2E07D086
:100620006D4846810B200004FFF70AFF042811D112
:10063000FF2D07D0684885810B200004FFF700FFDD
:10064000042807D1FF2C07D06348C4810B20000485
:10065000FFF7F6FE052804D05C490B69102293438E
:100660000B61F0BDF0B50B2706463F043846FFF797
:10067000E7FE04281ED1554C20692025284320611F
:1006800020694021084320613846FFF7D9FE04283D
:100690000BD12069A84320612069102528432061DF
:1006A0004D4806803846FFF7CBFE052802D0216969
:1006B000A9432161F0BDF0B506460B2094460F46D4
:1006C0000004FFF7BDFE042814D1404C206910251A
:1006D000284320613E4360460643F82006433E48D7
:1006E00046800B200004FFF7ABFE052802D02169ED
:1006F000A9432161F0BDF0B50B2706463F043846FB
:10070000FFF79EFE042810D1304C206910252843A5
:100710002061EF200643304846803846FFF790FEC0
:10072000052802D02169A9432161F0BDF0B50B274E
:1007300006463F043846FFF783FE042810D1234CB9
:100740002069102528432061F7200643224846806F
:100750003846FFF775FE052802D02169A9432161BB
:10076000F0BDF0B50B2706463F043846FFF768FE9C
:10077000042810D1154C20691025284320617F20C2
:100780000643154846803846FFF75AFE052802D032
:100790002169A9432161F0BDF0B50B2706463F044E
:1007A0003846FFF74DFE042819D1084C2069102562
:1007B00028432061DF200643074846803846FFF77C
:1007C0003FFE05280BD02169A94307E00020024025
:1007D00023016745AB89EFCD00F8FF1F2161F0BD14
:1007E000F0B50B2706463F043846FFF729FE0428DC
:1007F00010D14E4C2069102528432061BF200643AC
:100800004B4846803846FFF71BFE052802D0216979
:10081000A9432161F0BDF0B50B2706463F043846D9
:10082000FFF70EFE04280ED1404C20691025284306
:1008300020613F4846803846FFF702FE052802D077
:100840002169A9432161F0BDF0B507460B200E4692
:100850000004FFF7F5FD04280ED1344C2069102563
:10086000284320613E800B200004FFF7E9FD0528A6
:1008700002D02169A9432161F0BD2C48C069000460
:10088000000E70472948006A7047284A00291169FC
:1008900001D0014300E0814311617047234A0146C2
:1008A000D26800200A4200D0012070471F49C8606A
:1008B000704770B50646FFF7A3FD0B252D042846AB
:1008C000FFF7BEFD042817D1184C1A48A0601A483B
:1008D000A06020692021084320612069402108434D
:1008E00020612846FFF7ACFD1449042805D00528EF
:1008F00002D022690A40226170BD2069084020614F
:1009000020691021084320610948002E01D00021F0
:1009100000E0A52101802846FFF792FD0528EBD0D5
:100920002169064A10321140216170BD0020024049
:1009300000F8FF1F23016745AB89EFCDDF1F0000E3
:10094000092110B5C906884202D101214C0404E0F6
:100950005049884209D101210402204600F0DDFA05
:100960000021204600F0D9FA10BD4B49884202D13F
:1009700001210402F1E74949884202D101210C0515
:10098000EBE74749884202D101214402E5E74549A6
:100990008842E9D101218C05DFE7F0B5002203256B
:1009A00001230C6893401C409C422AD10C79012CF5
:1009B00001D0022C12D1876854002E46A640B743BE
:1009C00087604E79A64084682643866084889C436D
:1009D000848084888B7993401C438480066853000C
:1009E0002C469C40A64306600E7907689E403E4315
:1009F0000660C668A643C660CC799C40C3681C43A9
:100A0000C460521C102ACBD3F0BD274901600021DD
:100A10000171012242718171C1717047012208B5D3
:100A200012040A430092C261C1610099C161C169A7
:100A3000C069009008BD0246128A00200A4200D018
:100A400001207047008A70470246928A00200A42BD
:100A500000D001207047808A70478161704701850E
:100A60007047002A01D081617047018570478182FB
:100A700070474B07DB0E9A40C90810B5890008186B
:100A8000016A0F249C40A1430162016A1143016283
:100A900010BD00000004004800080048000C004899
:100AA0000010004800140048FFFF0000F8480168EB
:100AB0000122114301604168F64A1140416001681A
:100AC000F54A1140016001680122920491430160DE
:100AD00041683F22120491434160C16A090909013A
:100AE000C162016BED4A11400163416B4908490045
:100AF0004163002181607047E54900228A70887057
:100B0000704703460020E24A59090CD001290CD055
:100B100002290CD0516BDA06D20E012393400B420E
:100B200000D0012070471168F5E7116AF3E7516AB8
:100B3000F1E718B500200524240300901120FFF7E9
:100B4000E0FF0099491C0091A14201D00028F5D096
:100B50001120FFF7D6FF002800D0012018BDCC4A95
:100B60001168F8239943C000084310607047C849D2
:100B70000028086802D00122104301E0400840002C
:100B800008607047C24A516BF8239943C00008437C
:100B900050637047BE490028486B02D001221043C1
:100BA00001E04008400048637047B949042200282A
:100BB000486B01D0904300E0104348637047B4494C
:100BC0000A6A520852000A620A6A04239A430A62B5
:100BD0000A6A02430A627047AD490A6A18239A43B7
:100BE0000A620A6A02430A627047A9490028486AF1
:100BF00002D00122104301E04008400048627047E3
:100C000010B5A34A53687B24E403A343536053689D
:100C100008430343536010BD01229D49120600287A
:100C2000086801D0104300E090430860704701223B
:100C3000974912040028486B01D0104300E090430C
:100C400048637047924AD16A090909010143D16298
:100C5000704701228E49D2040028086801D0104351
:100C600000E09043086070478949C8717047884A1E
:100C70005168890889000143516070478448406881
:100C80000C2108407047824A5168F0239943014380
:100C9000516070477E4A516807231B029943014304
:100CA000516070477A494A6801239B039A434A601E
:100CB0004A6883B21A434A600A6B8B159A430A63E7
:100CC0000A6B000C02430A63704771490A6B4023A8
:100CD0009A430A630A6B02430A6370476C490A6BC2
:100CE00010239A430A630A6B02430A637047010F99
:100CF000674A01290AD00229116B0BD003239B04F8
:100D000099431163116B014311637047116B89089B
:100D10008900F6E703231B04F2E75D490A6B802391
:100D20009A430A630A6B02430A637047F8B5584E48
:100D30000446706800210C22594D104005D004284B
:100D400003D0082803D00C281AD025601AE0716857
:100D5000706803228902D2030F0F1040BF1C0028C5
:100D60000AD0F06A0107090F2846491C02F09BF9D6
:100D700078430146216005E04A4839464143F9E796
:100D8000494820607068494F0006000F3B5C2068AE
:100D90000246DA40626073685B055B0FFB5CDA4019
:100DA000A260336BDB0501D4414B05E073685B0443
:100DB00001D4530800E09308E360336B5F063D4BBA
:100DC00003D43C4F1237276100E02361376BFF06E5
:100DD00001D4656100E06061376BBF070ED0376BEF
:100DE000BF07BF0F012F0BD0376BBF07BF0F022FFD
:100DF00008D0376BFF43BF0706D006E0A26104E0CE
:100E0000A06102E0A36100E0A561376BBF03BF0FE3
:100E10000FD0376BBF03BF0F012F0CD0376BBF0351
:100E2000BF0F022F09D0376BBF03BF0F032F06D0B0
:100E300006E0E26104E0E06102E0E36100E0E56118
:100E4000376B3F03BF0F0FD0326B1203920F012A93
:100E50000CD0306B0003800F022809D0306B0003E8
:100E6000800F032806D006E0226204E0206202E040
:100E7000236200E02562306B000602D40A486062FB
:100E8000F8BD6162F8BD02490A6A02430A6270470E
:100E9000001002400CB8FFF8FFFFF6FEACFEF0FFBA
:100EA00000127A0000093D00006CDC020000002006
:100EB000809FD5000080000001223349D203002822
:100EC000086A01D0104300E090430862DFE7012286
:100ED0002D4912040028086A01D0104300E0904315
:100EE0000862D4E7284A0029516901D0014300E093
:100EF00081435161CBE7244A0029916901D0014324
:100F000000E081439161C2E71F4A0029D16901D005
:100F1000014300E08143D161B9E71B4A0029916A8E
:100F200001D0014300E081439162B0E7164A0029F5
:100F3000D16801D0014300E08143D160A7E7124AA4
:100F40000029116901D0014300E0814311619EE74E
:100F50000D4A0029517A01D0014300E081435172CA
:100F600095E70948416A01221206114341628EE762
:100F7000054A0146926800200A4288D0012086E78F
:100F80000149887283E7000000100240F94910B55A
:100F9000884202D10121C4143AE001218907884224
:100FA00006D101210846FFF7CAFF0021012008E011
:100FB000F149884208D101210220FFF7C0FF00213A
:100FC0000220FFF7BCFF10BDEC49884206D1012189
:100FD0001020FFF7B4FF00211020F2E7E849884213
:100FE00006D101212020FFF7AAFF00212020E8E7F9
:100FF000E449884207D1841501212046FFF79FFF6D
:1010000000212046DDE7E049884209D101210C0496
:101010002046FFF78BFF00212046FFF787FF10BD1A
:10102000DA49884202D101214C04F1E7D8498842CB
:10103000F5D101218C04EBE710B50288CD4B984225
:1010400006D00124A407A04202D0CB4CA04203D179
:101050007024A2434C882243C84CA04203D0CD4CFC
:1010600022400C89224302804A68C2620A880285B3
:10107000984208D0C44A904205D0C44A904202D057
:10108000C34A904201D1897A01860121818210BD33
:101090000021C943416000210180018141808172AA
:1010A0007047018582827047028870239A430A4301
:1010B0000280704741627047C1627047406A704762
:1010C000008D704702220029018801D0114300E001
:1010D00091430180704704220029018801D0114307
:1010E00000E091430180704780220029018801D0EF
:1010F000114300E0914301807047028808239A431E
:10110000028002880A43028070470288A14B1A407D
:10111000028002880A43028070470029018802D0B9
:101120000122114301E0490849000180704710B5D0
:101130000A884B88CC881A438B8823431A430B892F
:101140001A434B8989891A430A434030828010BD73
:101150000021018041808180C180018141818181A4
:10116000704740300029818803D00122D203114307
:1011700001E04904490C8180704770B5028C520827
:1011800052000284048C8288038B7025AB439B0839
:101190000D889B001D4302239C438E894B88264368
:1011A000744C3343A04208D0774CA04205D0774C12
:1011B000A04202D0764CA0420DD10824A343CC8992
:1011C0001C4304239C438B882343724C22400C8A8B
:1011D00014434A8A224382800583896841630384D9
:1011E00070BD70B5028C10239A430284048C8288EF
:1011F000038B694D2B400D782D062D0C1D432023AC
:101200009C438B891B051E0C4B8826431B051B0C1E
:10121000584C3343A04202D05B4EB04219D15F4ECE
:1012200032400E8AB604360C3243A04211D18024DB
:10123000A343CC892405240C1C4340239C438B8866
:101240001B051B0C2343564C22404C8AA404240C3F
:1012500022438280058389688163038470BD30B531
:10126000028C504B1A400284038C8288848B702538
:10127000AC43A4080D88A40025434B4C23400C7BB1
:101280002406240C1C438B781B061B0C2343394C6F
:10129000A04215D1424C23408C7B2406240C1C43D5
:1012A0003E4B1C400B791B061B0C23433F4C22403A
:1012B0000C8A2405240C14434A8A1205120C22437A
:1012C000828085838968C163038430BD30B5028C18
:1012D000374B1A400284058C8288838B2E4C234026
:1012E0000C782406240C1C43324B1D400B7B1B073F
:1012F0001B0C2B438D782D072D0C1D431D4B984245
:1013000005D12D4B13400A8A9205120C1A43828094
:10131000848389680164058430BD00210180418097
:10132000818081608181C18101824182704730B5B5
:10133000034618330124058C8C40A54305840029FD
:1013400010D008290ED0091F0804400CC0180168ED
:1013500007231B039943016001681206120C114315
:10136000016030BD4808C0180168702399430160CE
:101370000168F4E7002C0140000400400010004028
:1013800000140040002000400040014000440140A3
:1013900000480140FFFC0000FF8C0000FFFB000044
:1013A000FFF70000FFFE0000FFFD0000FFCF000080
:1013B000FFEF0000FFDF0000FFBF00004163704748
:1013C00081637047C163704701647047028B70236B
:1013D0009A430A4302837047028BF64B09021A4074
:1013E000114301837047828B70239A430A4382839F
:1013F0007047828BEF4B09021A401143818370477B
:101400000029818802D00122114301E049084900E6
:1014100081807047028B08239A430A4302837047F6
:10142000028BE54B09021A40114301837047828BFE
:1014300008239A430A4382837047828BDE4B09025A
:101440001A40114381837047028B04239A430A4355
:1014500002837047028BD94B09021A401143018362
:101460007047828B04239A430A4382837047828B9E
:10147000D24B09021A40114381837047028B8023AB
:101480009A430A4302837047028B5204520C0902AA
:10149000114301837047828B80239A430A438283DE
:1014A0007047828B5204520C0902114381837047AA
:1014B000028C02239A430A4302847047028C082359
:1014C0009A430A4302847047028C20239A430901FD
:1014D000114301847047028C80239A430901114310
:1014E00001847047028CB64B09021A4011430184F3
:1014F0007047028CB04B09021A40114301847047B7
:10150000028CB04B09031A401143018470470289D1
:1015100008239A43028102890A430281704710B569
:101520000123048C8B409C430484038C8A40134326
:10153000038410BD10B50423048C8B409C430484A9
:10154000038C8A401343038410BD04220029818840
:1015500001D0114300E0914381807047828B9A4B08
:101560001A408283828B09020A4382837047828BEE
:101570000C239A438283828B0A4382837047028BB7
:10158000914B1A400283028B09020A43028370477F
:10159000F0B5048C1026B4430484058B048C8B4F67
:1015A0001B0309013D402B4312021A43A0239C4315
:1015B0000C43344302830484F0BD028B0C239A4312
:1015C0000283028B0A430283704770B5048C64085F
:1015D00064000484058B048C1B011343F3260A2248
:1015E000B54394432B430C4301210C4303830484F0
:1015F00070BDF8B5054608884E888A880B890C4668
:1016000000281DD0042824D00828288C2AD070490E
:1016100008402884A88B2F8C31036C4E1202304076
:101620000243180310436B4AA88317400F4301215C
:1016300009030F432F84E1882846FFF78FFFF8BD89
:1016400031462846FFF7C1FFE1882846FFF7B5FF7E
:10165000F8BD31462846FFF79BFFE1882846FFF793
:101660008EFFF8BD5C4908402884A98B288C37027E
:10167000F3261B01B14313430B435849AB83084086
:10168000FF213843013108432884E1882846FFF7C9
:101690006EFFF8BD00210180418001228280C1805F
:1016A00001817047F8B50C46498800260125074698
:1016B000002900D10226A288012A00D10225208813
:1016C00023890028384610D0FFF762FFE1883846AA
:1016D000FFF755FF23892A4631463846FFF775FF45
:1016E000E1883846FFF769FFF8BDFFF76EFFE18834
:1016F0003846FFF762FF23892A4631463846FFF70E
:1017000047FFE1883846FFF73AFFF8BD406B704766
:10171000806B7047C06B7047006C7047002A8289ED
:1017200001D00A4300E08A4382817047818270477A
:101730000246128A00200A4200D001207047C943A5
:10174000018270470246138A002092890B400A40AA
:10175000002B02D0002A00D001207047C94301822B
:1017600070471143403001817047002A828901D0BF
:101770000A4300E08A438281704708220029818859
:1017800001D0114300E09143818070470189C9086D
:10179000C90001817047028970239A430A4302817C
:1017A000704710B50446FFF7F6FF2089072108436C
:1017B000208110BDFF8F0000FFF70000FFFB00003D
:1017C000FFFD0000FFDF0000FFF30000FF0C000042
:1017D000FFEF0000FF5F0000FFFE0000FFF50000CC
:1017E00070B516460D46044660290CD001223146DC
:1017F000FFF7EBFE29462046FFF7CDFF20890721A2
:101800000843208170BD01223146FFF7C1FEF1E798
:1018100010B504891B021343E4B20B432343038135
:1018200010BD10B50446FFF7F3FF2089C108C900B9
:1018300007200143702081430143218110BD10B571
:101840000446FFF7E5FF2089012189030843208131
:1018500010BD828870239A43828082880A438280E6
:1018600070470289D208D200028102890A430281AC
:101870007047028980239A43028102890A430281C8
:10188000704770B50589048B068CED08ED000D439B
:101890000C4905810C40FF2102310C43AA218E43E3
:1018A0001901114331430483018470BD8022002952
:1018B000818801D0114300E091438180704740301E
:1018C00001827047FCFC0000F74910B5884207D13F
:1018D00001218C032046FFF729FB0021204627E049
:1018E000F249884202D101214C0404E0F0498842C7
:1018F00009D101218C042046FFF721FB002120465D
:10190000FFF71DFB10BDEB49884202D10121CC0439
:10191000F1E7E949884202D101210C05EBE7E749EB
:10192000884208D101212020FFF700FB0021202060
:10193000FFF7FCFA10BDE249884206D101214020A0
:10194000FFF7F4FA00214020F2E7DE498842F1D1A6
:1019500001218020FFF7EAFA00218020E8E730B576
:10196000044600688BB00D46400840002060606867
:10197000032109038843A968014361602068D249B3
:10198000EA680840696811432A69024311432160EB
:10199000A06803210902884369690143A160684680
:1019A000FFF7C4F9C048844201D106980AE0BF4855
:1019B000844201D1079805E0BD48844201D10898CE
:1019C00000E0029821680904296800D5400001F070
:1019D0006AFB2A6852088A4200D8401C2168090420
:1019E00004D50107B94A490F10400843A0810BB044
:1019F00030BD4B21C90101600021416081600C2292
:101A0000C16002614161704710B543680F22120244
:101A1000934314C922430C6849680C4322431A4378
:101A2000426010BD0021016041608160C16070476B
:101A30000029016802D00122114301E04908490050
:101A400001607047002A026801D00A4300E08A431F
:101A5000026070470122D2030029016801D01143BE
:101A600000E09143016070470122D20200298168A1
:101A700001D0114300E09143816070470122D204FC
:101A80000029416801D0114300E091434160704753
:101A9000012292040029416801D0114300E09143E2
:101AA00041607047002A426801D00A4300E08A433F
:101AB000426070470122D2030029416801D01143DE
:101AC00000E09143416070470122D205002941683E
:101AD00001D0114300E09143416070474269120E0A
:101AE0001206426142690A4342617047028A120A41
:101AF00012020282028A0A430282704702220029ED
:101B0000016801D0114300E0914301607047826891
:101B100003231B059A43826082680A4382607047F0
:101B2000012212050029416801D0114300E09143D0
:101B300041607047426803235B059A4342604268F4
:101B40000A4342607047C905C90D01857047808C02
:101B5000C005C00D704742681202120A4260426816
:101B600009060A43426070470122520300290168B6
:101B700001D0114300E091430160704702680123E6
:101B8000DB029A43026002680A43026070474268BF
:101B900010239A43426042680A4342607047426899
:101BA00020239A43426042680A4342607047012200
:101BB00092030029416801D0114300E09143416044
:101BC000704708220029816801D0114300E0914349
:101BD00081607047028AD2B20282028A09020A43F5
:101BE0000282704720220029816801D0114300E061
:101BF00091438160704710220029816801D0114310
:101C000000E0914381607047826807235B049A4338
:101C10008260826849040A43826070474269120206
:101C2000120A4261426909060A43426170478268AA
:101C300004239A43826082680A43826070470222CA
:101C40000029816801D0114300E091438160704711
:101C5000012292030029816801D0114300E09143E1
:101C60008160704782680123DB039A438260826847
:101C70000A438260704702681F235B059A43026033
:101C8000026849050A430260704702681F231B046B
:101C90009A430260026809040A4302607047002AFE
:101CA000826815D00A4314E0003801400044004027
:101CB00000480040004C004000500040001401402B
:101CC00000180140001C0140F3E9FFFFF0FF000095
:101CD0008A4382607047826801235B039A43826073
:101CE00082680A438260704710B50B041C0E012302
:101CF0008B40022C02D0032C02D002E0001D00E039
:101D000008300168002A01D0194300E099430160BE
:101D100010BD002A028B01D00A4300E08A430283EF
:101D20007047826801231B039A43826082680A43DA
:101D3000826070470246D26900200A4200D001202A
:101D400070470162704730B50A04130E01252A4618
:101D500000248A40012B0ED0022B0ED08368090C80
:101D60001340C0698D402840002B02D0002800D0CD
:101D70000124204630BD0368F1E74368EFE7090C12
:101D800001228A400262704730B5827801240178CE
:101D9000002A15D08B08174A9B009A1813688907E8
:101DA000C90EFF258D40AB434578AD072D0E8D4004
:101DB0001D4315600078C006C00E84400E4804E044
:101DC000C806C00E84400C488030046030BD0B4A09
:101DD0000029116901D0014300E08143116170477E
:101DE000042207490428086902D09043086170471B
:101DF0001043FBE700E400E000E100E000ED00E05C
:101E000000E000E030482F4901600021416081601E
:101E1000C1602E494161704710B583792A49026833
:101E2000002B26D00B6893430B604A6803689A43E3
:101E30004A600279521813680468234313608A6861
:101E400003689A438A60CA6803689A43CA60427901
:101E5000102A05D051180A68006802430A6010BDB4
:101E60008A6803681A438A60CA6800680243CA60C5
:101E700010BD0079401801689143016010BD002138
:101E8000016001710C224271817170470E490A692B
:101E900002430A6170470C4A0146526900200A4217
:101EA00000D001207047084948617047064A014642
:101EB000526900200A4200D001207047024948615F
:101EC000704700000000940F00040140FFFF6B000A
:101ED0002E4801688907890F016000218160C16077
:101EE0000161416181698215114381617047274A0F
:101EF000116889088900014311607047234A00294D
:101F0000116801D0014300E08143116070471F4A0E
:101F10000029116801D0014300E08143116070473E
:101F20001A490A68C0239A430A600A6802430A6091
:101F300070478A0710B5120F0F2393408C0813497E
:101F4000A40061188C689C438C608B6890400343AC
:101F50008B6010BD0D4A010E890080328918096816
:101F60000002000A0840704708498A6902438A61F2
:101F70007047064900208969C90500D501207047CE
:101F800002498A6902438A617047000000000140EB
:101F900010B54E48016801221143016041684C4A66
:101FA0001140416001684B4A114001600168012203
:101FB00092049143016041683F22120491434160C1
:101FC000C16A09090901C162016BFF2253329143C1
:101FD0000163416B4908490041630021816000F0C1
:101FE0002EF810BD70B5394E71680C2001403A488A
:101FF0003A4C03D0042901D0082901D0206014E014
:102000007268716803239202DB03150F1940AD1C3F
:10201000002907D0F16A0907090F491C01F043F8AC
:102020006843EBE72E484543256070682B4900065E
:10203000000F091D085C2168C140216070BD1CB5FE
:1020400000232248009301930168012212041143E6
:10205000016051000524240302680A400192009A9D
:10206000521C0092019A002A02D1009AA242F3D196
:102070000168890328D5012101911A4A11211160B3
:10208000416841604168416041687F22D2039143C9
:10209000416041681122120411434160016801222C
:1020A00012061143016001688901FCD54168890865
:1020B000890041604168022211434160416809077B
:1020C000890F0229FAD11CBD01931CBD00100240EA
:1020D0000CB8FFF8FFFFF6FE00127A001000002097
:1020E00000093D000020024010B500F0B2F800F0F9
:1020F0009BF800F093FA00F0F3F800F07AF800F0A3
:1021000059FA00F078F910BD1CB5FF20013000909D
:102110000020694608710320487102203B4CC871B9
:102120002046FEF73AFC012149020091694620460B
:10213000FEF733FC1CBD1CB5892000020090002076
:102140006A46107103215171D07109206946C00699
:10215000FEF723FC2E48009069462C48FEF71DFC34
:102160004F208001009069462A48FEF716FC0420A3
:10217000009069462848FEF710FCC0200090694690
:102180002648FEF70AFC1CBDFEB5FF200090012486
:10219000684604710325457100268671C4710920C3
:1021A0006946C006FEF7F9FB1D4F684600970471AB
:1021B00045718671C47169461448FEF7EEFB1C2018
:1021C00000906846047145718671C471114C69466E
:1021D0002046FEF7E2FB0920FF21C006FEF73DFC8A
:1021E00039460A48FEF739FC1C212046FEF735FC2B
:1021F000FEBD10B501210B48FEF774FEFFF7C4FFCA
:10220000FFF799FFFFF780FF10BD000000040048B2
:1022100008F0000000080048000C004800140048C6
:10222000070C000001005E0038B51B2069460870ED
:102230000020487001248C706846FFF7A5FD10202F
:1022400069460870022048708C706846FFF79CFD54
:1022500038BD00B58BB00120FEF7FBFC0120FEF776
:102260004BFCFEF766FC01281ED1FEF7B8F80020F3
:10227000FEF709FD0020FEF70DFD012109050811FB
:10228000FEF7BEFC0120FEF7C7FC1920FEF739FC63
:102290000028FAD00220FEF7EAFC6846FEF746FD69
:1022A000FEF7ECFC0828FBD10BB000BD3EB50020CA
:1022B0006A467D219072C900019130211180108100
:1022C000284C508069462046FEF7B6FE0122114692
:1022D0002046FFF723FA01212046FEF71EFF3EBDF0
:1022E00010B501211220FEF70FFEFFF7DFFF10BD32
:1022F00070B51C4D002401212846FFF723FA002861
:1023000016D01948194B416A994201D2491C4162C1
:102310000188994201D2491C018061000A18518844
:10232000994201D2491C5180641CE4B2102CF4D3B0
:1023300001212846FFF712FA70BD3EB530206946EC
:102340000880002048807D21C90001916946084C21
:1023500008812046FEF770FE01212046FEF7C4FEEC
:102360003EBD00000004004048000020F0FF0000D7
:1023700000100040F0B58BB01D4617460C460646CF
:10238000FDF746FF00218020009405900395202052
:1023900008900491032002910691000307910A918D
:1023A0000990019769463046FDF78CFF01213046C0
:1023B000FDF7B1FF0BB0F0BDF0B50C4606460121AC
:1023C0008BB01F4615460846FEF78CFD1020029084
:1023D000002100948020059004910320039701952B
:1023E00000030691079108910A91099069463046C9
:1023F000FDF768FFDEE730B5012189B08803FEF7FD
:102400007AFD0921CD0601222846FEF732FB012282
:102410000A212846FEF72DFB01220C212846FEF753
:1024200028FB0B204002069002206A46107703200A
:102430005077002494770121D17706A92846FEF72A
:10244000ACFA4C4D01212846FFF704FB4A4805949D
:1024500000900C200490019402940394694628464D
:10246000FFF77DFA01212846FFF7F2FB1F212846DE
:10247000FFF701FC00212846FFF7F4FB01223F494A
:102480002846FFF731FC0122C0212846FFF707FC50
:1024900001212846FFF7CCFA40212846FFF751FCDE
:1024A00034491E23364A28313648FFF785FF344A1F
:1024B000304934481E231E3A24311430FFF75AFFA6
:1024C00009B030BD026852085200026041600168E4
:1024D000012211430160704770B506460D46202069
:1024E000FDF74DFF274C00212046FDF714FF2A463B
:1024F0003146234800F076FD29462046FFF7E2FFEB
:1025000070BDF8B51B4C10212046FFF713FC1B4E85
:10251000002820D01B4F002114373846FDF7FBFE62
:102520003846FDF713FF164D1E21081A203DE88797
:102530003846FFF7C7FF31462046FFF720FCE06929
:10254000694608700B48203080880870E88F05289D
:1025500001D900F0F4FC31462046FFF710FC0821B9
:102560002046FFF7E7FB012803D108212046FFF7AB
:10257000E8FBF8BD00380140808D5B0004010400D9
:10258000900000201C0002403EB5FF20013000906A
:10259000002469460C71082048718C716846FFF769
:1025A0003BFC0720694608724C728C7202A8FFF748
:1025B000EBFB3EBD3EB501210846FEF79CFC082121
:1025C0000120FFF7B6FCFF2001300090002569468E
:1025D0000D710820487101248C716846FFF71CFCBE
:1025E0000720694608724D728C7202A8FFF7CCFB77
:1025F0003EBD10B5FF2401342046FFF757FC0028EC
:1026000008D00549012048700A782046521C0A70FB
:10261000FFF754FC10BD00007000002010B504202E
:10262000C043FFF7DDFB10BD302148437D21C008CA
:10263000C90048430D49486100228A6101200861B0
:1026400008690009FCD00A618A617047302148435B
:102650000649C008486100228A61012008610869B2
:102660000009FCD00A618A617047000000E000E0C8
:1026700010B500F0BDF800F07BF8FFF785FF10BD46
:10268000FEB53E4F3E49387808703E490126087035
:102690003D493E4D08707602002431462846FEF73B
:1026A000CAF901280DD001206A4600961071002158
:1026B000917103215171D07169462846FEF76DF979
:1026C0003AE00520FFF7B0FF31462846FEF7B3F9A0
:1026D00001280DD001206A460096107100219171E9
:1026E00003215171D07169462846FEF756F910E072
:1026F00000F013FCFEBDA88A3043A8823220FFF709
:10270000A5FFA88AB043A8823220FFF79FFF641C70
:10271000E4B23878401CA042EDD8FEBDA88A304310
:10272000A8823220FFF792FFA88AB043A882322005
:10273000FFF78CFF641CE4B23878401CA042EDD84F
:10274000FEBD70B52821124800F0ABFC40210B48BB
:1027500000F0A5FC094E00240D4D00F0A3FB70789D
:10276000012801D02C80F8E728880A28F5D970BD07
:1027700010B5FFF7E6FFFFF783FF10BD70000020E4
:102780002B00002038000020240000200004004816
:102790004800002030B5FF23124C1A46A1420AD946
:1027A000002030BD047854406200AC5A220A5A40DE
:1027B000E3B2401C00E00C4D491EF3D21002184356
:1027C00030BD30B502460020084D08E0030A00067F
:1027D000040C107858404000285A6040521C491E92
:1027E000F4D230BD400D03006A3200086A3400089C
:1027F0000020FF4901224300401CC0B2CA521028E9
:10280000F9D3704730B50922D206918AE02081437E
:10281000102399430824A143042081430225A9439E
:10282000490849009182F34A918A49084900A9431D
:1028300003258143AD02A9439182EF4A918A8143E6
:10284000A1439943918230BD70B50922D206918A85
:10285000E0200143102319430824214304200143AD
:1028600002252943012631439182E24A918A31436C
:10287000294303250143AD0229439182DE4A918A0F
:10288000014321431943918270BD10B5DB48C17AE1
:1028900000290BD1007B002808D1D94CD949606AA6
:1028A000884204D9FFF7D0FF0020606210BDD549EF
:1028B000C8398842FAD9FFF7A5FF10BDF8B5402105
:1028C000CD48FEF7B8F8CA4E0027CD4D0128CB4CB5
:1028D0006888318808D0884217D34021C648FEF75F
:1028E000AAF8002808D021E088420ED34021C2482F
:1028F000FEF7A1F8012819D00421BF48FEF7ADF872
:10290000E07A40084000E0726F800421BE48FEF784
:1029100092F80128A888718810D0884220D3042119
:10292000B948FEF788F8002810D02CE00421B248FE
:10293000FEF795F8E07A01210843E4E788420FD3D7
:102940000421B148FEF777F801281CD009200121A5
:10295000C006FEF782F8E07AFD210840E072AF8001
:102960000121C903A348FEF766F80128E888B18869
:1029700012D0884223D30121C9039E48FEF75BF899
:10298000002812D02CE009200121C006FEF767F8CC
:10299000E07A02210843E1E7884210D30121C9030C
:1029A0009448FEF748F801281AD009200421C006EF
:1029B000FEF753F8E07AFB210840E072EF8008212F
:1029C0008C48FEF738F801282889F18811D0884210
:1029D00021D308218748FEF72EF8002811D02FE0D8
:1029E00009200421C006FEF73AF8E07A04210843E2
:1029F000E3E788420FD308217E48FEF71CF8012840
:102A00001ED009201021C006FEF727F8E07AF72132
:102A10000840E0722F8101210920C902C006FEF79B
:102A20000AF801286889318913D0884225D3012109
:102A30000920C902C006FDF7FEFF002813D02FE0D1
:102A400009201021C006FEF70AF8E07A08210843A1
:102A5000DFE7884211D301210920C902C006FDF732
:102A6000EAFF01281CD009204021C006FDF7F5FF30
:102A7000E07AEF210840E0726F81012109035E488E
:102A8000FDF7D9FF0128A889718912D0884222D385
:102A9000012109035848FDF7CEFF002812D02FE08E
:102AA00009204021C006FDF7DAFFE07A1021084333
:102AB000E1E788420FD3012109034F48FDF7BBFF2F
:102AC00001281DD010214C48FDF7C7FFE07ADF2117
:102AD0000840E072AF81FF2109200131C006FDF7F7
:102AE000AAFF0128E889B18912D0884223D3FF21A7
:102AF00009200131C006FDF79EFF002812D02DE00D
:102B000010213D48FDF7ABFFE07A20210843E0E7C4
:102B1000884210D3FF2109200131C006FDF78BFF49
:102B200001281BD002213348FDF797FFE07ABF212F
:102B30000840E072EF81012189032E48FDF77BFFF9
:102B40000128288AF18911D0884222D301218903E2
:102B50002848FDF770FF002811D02FE002212548FA
:102B6000FDF77DFFE07A40210843E2E7884210D379
:102B7000012189031F48FDF75EFF01281ED00121B6
:102B800089021C48FDF769FFE07A4006400EE072BA
:102B90002F8201210920C903C006FDF74CFF01283F
:102BA000688A318A13D0884233D301210920C903AE
:102BB000C006FDF740FF002813D03DE00121890247
:102BC0000C48FDF74CFFE07A80210843DFE788429C
:102BD0001FD301210920C903C006FDF72CFF0128DE
:102BE0002AD008210448FDF738FF207B40080DE07B
:102BF000B000002000040048000800483800002011
:102C00004800002050140000000C004840002073D1
:102C10006F8201214902AC48FDF70DFF0128A88A07
:102C2000718A11D0884222D301214902A648FDF7BA
:102C300002FF002811D02BE00821A348FDF70FFF69
:102C4000207B01210843E2E7884210D30121490299
:102C50009D48FDF7F0FE01281AD009200221C00688
:102C6000FDF7FBFE207BFD2108402073AF82802111
:102C70009648FDF7E0FE0128E88AB18A11D0884223
:102C800021D380219148FDF7D6FE002811D02DE0F8
:102C900009200221C006FDF7E2FE207B0221084345
:102CA000E3E788420FD380218848FDF7C4FE01285E
:102CB0001CD009200821C006FDF7CFFE207BFB2198
:102CC00008402073EF82FF2101317F48FDF7B3FEFA
:102CD0000128288BF18A12D0884223D3FF210131A9
:102CE0007948FDF7A8FE002812D02CE00920082121
:102CF000C006FDF7B4FE207B04210843E1E78842CB
:102D000010D3FF2101317048FDF795FE01281AD03C
:102D100009202021C006FDF7A0FE207BF7210840F6
:102D200020732F8340216948FDF785FE0128688BB9
:102D3000318B11D0884221D340216448FDF77BFEBE
:102D4000002811D02DE009202021C006FDF787FEC4
:102D5000207B08210843E3E788420FD340215B48EA
:102D6000FDF769FE01281CD009208021C006FDF76F
:102D700074FE207BEF21084020736F8301214903FB
:102D80005348FDF758FE0128A88B718B12D088425A
:102D900022D3012149034E48FDF74DFE002812D0F1
:102DA0002BE009208021C006FDF759FE207B102171
:102DB0000843E1E788420FD3012149034448FDF766
:102DC0003AFE012819D001214148FDF746FE207B3B
:102DD000DF2108402073AF8380213B48FDF72BFEA5
:102DE0000128E88BB18B10D088421FD38021364850
:102DF000FDF721FE002810D02CE001213448FDF71A
:102E00002EFE207B20210843E4E788420ED3802158
:102E10002D48FDF710FE01281CD004212C48FDF799
:102E20001CFE207BBF2108402073EF830121090392
:102E30002748FDF700FE0128288CF18B12D088422C
:102E400024D3234E012109033046FDF7F4FD002869
:102E500012D01EE004211E48FDF701FE207B402118
:102E60000843E1E7884211D3194E01210903304696
:102E7000FDF7E1FD01280CD00121C9023046FDF724
:102E8000ECFD207B4006400E20732F84FFF7FDFCF5
:102E9000F8BD0121C9023046FDF7E1FD207B80210C
:102EA0000843F1E710B50B4CFF21606AF531884209
:102EB00004D9FFF7C9FC0020606210BDFA28FCD9D4
:102EC000FFF7A0FC10BD00000008004800140048F7
:102ED000000400484800002010B50B213848FFF7D7
:102EE00059FC3749020ACA7208730D213448FFF7AA
:102EF000F3FA10BD10B5324C01780D34E171407811
:102F000020720D212046FFF745FC010A6173A07372
:102F10000F212046FFF7E0FA10BD10B52948284CD4
:102F20000078E41F207105212046FFF733FC010AD9
:102F30006171A07107212046FFF7CEFA10BD10B5D0
:102F4000204CA0782178884238D1E1782046407919
:102F5000012902D0032926D110E0002823D1042121
:102F6000A01CFFF717FCA279010A91421BD1E1795D
:102F7000C0B2884217D1FFF7AFFF14E0082812D182
:102F8000A0791D280FD10D21A01CFFF703FCE27BC7
:102F9000010A914207D1217CC0B2884203D109487D
:102FA0000930FFF7A7FF1E21A01C00F078F81E21B2
:102FB0000548FDF7C9F90020A070E07010BD0000C1
:102FC0002B0000207000002030000240FFF78CF83A
:102FD000FFF74EFBFFF772FCFCE77047FEE7704718
:102FE00070477047F8B5042A2CD3830712D00B78AA
:102FF000491C0370401C521E83070BD00B78491CE0
:103000000370401C521E830704D00B78491C0370C8
:10301000401C521E8B079B0F05D0C91ADF002023CE
:10302000DE1B08C90AE0FDF79DF8F8BD1D4608C97A
:10303000FD401C46B4402C4310C0121F042AF5D298
:10304000F308C91A521EF0D40B78491C0370401CB7
:10305000521EEAD40B78491C0370401C012AE4D4A8
:1030600009780170F8BD01E004C0091F0429FBD2F2
:103070008B0701D50280801CC90700D00270704701
:1030800000290BD0C30702D00270401C491E022940
:1030900004D3830702D50280801C891EE3E7002247
:1030A000EEE70022DFE7002203098B422CD3030A5C
:1030B0008B4211D300239C464EE003460B433CD485
:1030C000002243088B4231D303098B421CD3030AED
:1030D0008B4201D394463FE0C3098B4201D3CB011D
:1030E000C01A524183098B4201D38B01C01A52414D
:1030F00043098B4201D34B01C01A524103098B4251
:1031000001D30B01C01A5241C3088B4201D3CB003B
:10311000C01A524183088B4201D38B00C01A52411E
:1031200043088B4201D34B00C01A5241411A00D2CE
:1031300001465241104670475DE0CA0F00D0494237
:10314000031000D34042534000229C4603098B42A7
:103150002DD3030A8B4212D3FC22890112BA030A2F
:103160008B420CD3890192118B4208D389019211B1
:103170008B4204D389013AD0921100E08909C30936
:103180008B4201D3CB01C01A524183098B4201D338
:103190008B01C01A524143098B4201D34B01C01A23
:1031A000524103098B4201D30B01C01A5241C3089B
:1031B0008B4201D3CB00C01A524183088B4201D30A
:1031C0008B00C01A5241D9D243088B4201D34B0025
:1031D000C01A5241411A00D20146634652415B1067
:1031E000104601D34042002B00D549427047634648
:1031F0005B1000D3404201B50020C046C04602BD6E
:10320000704770477047754600F024F8AE460500D9
:1032100069465346C008C000854618B020B5FCF783
:10322000D7FF60BC00274908B6460026C0C5C0C508
:10323000C0C5C0C5C0C5C0C5C0C5C0C5403D4900AA
:103240008D46704710B50446C046C0462046FCF780
:1032500082FF10BD00487047D000002001491820AF
:10326000ABBEFEE72600020070470000C0C1C1816E
:103270000140C30103C00280C241C60106C00780ED
:10328000C7410500C5C1C4810440CC010CC00D80FC
:10329000CD410F00CFC1CE810E400A00CAC1CB8103
:1032A0000B40C90109C00880C841D80118C0198065
:1032B000D9411B00DBC1DA811A401E00DEC1DF816B
:1032C0001F40DD011DC01C80DC411400D4C1D5812C
:1032D0001540D70117C01680D641D20112C0138005
:1032E000D3411100D1C1D0811040F00130C03180F4
:1032F000F1413300F3C1F28132403600F6C1F7816B
:103300003740F50135C03480F4413C00FCC1FD81FB
:103310003D40FF013FC03E80FE41FA013AC03B8084
:10332000FB413900F9C1F88138402800E8C1E98142
:103330002940EB012BC02A80EA41EE012EC02F80EC
:10334000EF412D00EDC1EC812C40E40124C025802B
:10335000E5412700E7C1E68126402200E2C1E38182
:103360002340E10121C02080E041A00160C06180D4
:10337000A1416300A3C1A28162406600A6C1A781EA
:103380006740A50165C06480A4416C00ACC1AD81FB
:103390006D40AF016FC06E80AE41AA016AC06B8004
:1033A000AB416900A9C1A88168407800B8C1B98162
:1033B0007940BB017BC07A80BA41BE017EC07F806C
:1033C000BF417D00BDC1BC817C40B40174C075802B
:1033D000B5417700B7C1B68176407200B2C1B38102
:1033E0007340B10171C07080B041500090C19181B3
:1033F0005140930153C052809241960156C057806C
:103400009741550095C1948154409C015CC05D80FA
:103410009D415F009FC19E815E405A009AC19B8181
:103420005B40990159C058809841880148C0498043
:1034300089414B008BC18A814A404E008EC18F81E9
:103440004F408D014DC04C808C41440084C185812A
:103450004540870147C046808641820142C0438083
:103460008341410081C18081404000002110422001
:1034700063308440A550C660E770088129914AA155
:103480006BB18CC1ADD1CEE1EFF1311210027332CC
:103490005222B5529442F772D662399318837BB3A5
:1034A0005AA3BDD39CC3FFF3DEE36224433420045C
:1034B0000114E664C774A44485546AA54BB52885F5
:1034C0000995EEE5CFF5ACC58DD5533672261116AC
:1034D0003006D776F6669556B4465BB77AA7199745
:1034E0003887DFF7FEE79DD7BCC7C448E558866834
:1034F000A7784008611802282338CCC9EDD98EE995
:10350000AFF9488969990AA92BB9F55AD44AB77A0B
:10351000966A711A500A333A122AFDDBDCCBBFFBE4
:103520009EEB799B588B3BBB1AABA66C877CE44C1B
:10353000C55C222C033C600C411CAEED8FFDECCD34
:10354000CDDD2AAD0BBD688D499D977EB66ED55EEB
:10355000F44E133E322E511E700E9FFFBEEFDDDF84
:10356000FCCF1BBF3AAF599F788F8891A981CAB110
:10357000EBA10CD12DC14EF16FE18010A100C23042
:10358000E3200450254046706760B9839893FBA3FD
:10359000DAB33DC31CD37FE35EF3B1029012F32292
:1035A000D2323542145277625672EAB5CBA5A8954D
:1035B00089856EF54FE52CD50DC5E234C324A014E2
:1035C00081046674476424540544DBA7FAB79987DD
:1035D000B8975FE77EF71DC73CD7D326F236910632
:1035E000B01657667676154634564CD96DC90EF925
:1035F0002FE9C899E9898AB9ABA944586548067882
:103600002768C018E1088238A3287DCB5CDB3FEB3C
:103610001EFBF98BD89BBBAB9ABB754A545A376AD1
:10362000167AF10AD01AB32A923A2EFD0FED6CDD0C
:103630004DCDAABD8BADE89DC98D267C076C645C21
:10364000454CA23C832CE01CC10C1FEF3EFF5DCF1C
:103650007CDF9BAFBABFD98FF89F176E367E554E71
:10366000745E932EB23ED10EF01E00008C36000820
:10367000000000204800000004010008D4360008C3
:1036800048000020E80600002001000800000000BB
:10369000010203040102030406070809006CDC02AE
:1036A00000000000000000000102030406070809F2
:1036B00000050000000000000200071D00100000CF
:1036C00000000000000400081D03020000000000CC
:0436D00000000000F6
:04000005080000C12E
:00000001FF
